{
  "contractName": "Deed",
  "abi": [
    {
      "constant": true,
      "inputs": [],
      "name": "previousOwner",
      "outputs": [
        {
          "name": "",
          "type": "address"
        }
      ],
      "payable": false,
      "stateMutability": "view",
      "type": "function"
    },
    {
      "constant": true,
      "inputs": [],
      "name": "owner",
      "outputs": [
        {
          "name": "",
          "type": "address"
        }
      ],
      "payable": false,
      "stateMutability": "view",
      "type": "function"
    }
  ],
  "bytecode": "0x608060405234801561001057600080fd5b50610176806100206000396000f30060806040526004361061004c576000357c0100000000000000000000000000000000000000000000000000000000900463ffffffff168063674f220f146100515780638da5cb5b146100a8575b600080fd5b34801561005d57600080fd5b506100666100ff565b604051808273ffffffffffffffffffffffffffffffffffffffff1673ffffffffffffffffffffffffffffffffffffffff16815260200191505060405180910390f35b3480156100b457600080fd5b506100bd610125565b604051808273ffffffffffffffffffffffffffffffffffffffff1673ffffffffffffffffffffffffffffffffffffffff16815260200191505060405180910390f35b600160009054906101000a900473ffffffffffffffffffffffffffffffffffffffff1681565b6000809054906101000a900473ffffffffffffffffffffffffffffffffffffffff16815600a165627a7a72305820dcd873e2a7e031968ee80e9c8479cfc4364721476a7135fd3fd769c5671bfcf30029",
  "source": "pragma solidity ^0.4.17;\n\ncontract Deed {\n    address public owner;\n    address public previousOwner;\n}\n\ncontract HashRegistrarSimplified {\n    enum Mode { Open, Auction, Owned, Forbidden, Reveal, NotYetAvailable }\n\n    bytes32 public rootNode;\n\n    function entries(bytes32 _hash) public view returns (Mode, address, uint, uint, uint);\n    function transfer(bytes32 _hash, address newOwner) public;\n}\n",
  "sourcePath": "/Users/significance/Code/df/subdomain-registrar/contracts/HashRegistrarSimplified.sol",
  "compiler": {
    "name": "solc",
    "version": "0.4.24+commit.e67f0147.Emscripten.clang"
  },
  "schemaVersion": "2.0.1",
  "updatedAt": "2019-02-19T08:46:17.856Z"
}