{
  "contractName": "DummyDeed",
  "abi": [
    {
      "constant": true,
      "inputs": [],
      "name": "previousOwner",
      "outputs": [
        {
          "name": "",
          "type": "address"
        }
      ],
      "payable": false,
      "stateMutability": "view",
      "type": "function"
    },
    {
      "constant": true,
      "inputs": [],
      "name": "owner",
      "outputs": [
        {
          "name": "",
          "type": "address"
        }
      ],
      "payable": false,
      "stateMutability": "view",
      "type": "function"
    },
    {
      "inputs": [
        {
          "name": "_owner",
          "type": "address"
        }
      ],
      "payable": false,
      "stateMutability": "nonpayable",
      "type": "constructor"
    },
    {
      "constant": false,
      "inputs": [
        {
          "name": "newOwner",
          "type": "address"
        }
      ],
      "name": "transfer",
      "outputs": [],
      "payable": false,
      "stateMutability": "nonpayable",
      "type": "function"
    }
  ],
  "bytecode": "0x608060405234801561001057600080fd5b506040516020806102ec83398101806040528101908080519060200190929190505050806000806101000a81548173ffffffffffffffffffffffffffffffffffffffff021916908373ffffffffffffffffffffffffffffffffffffffff16021790555050610269806100836000396000f300608060405260043610610057576000357c0100000000000000000000000000000000000000000000000000000000900463ffffffff1680631a6952301461005c578063674f220f1461009f5780638da5cb5b146100f6575b600080fd5b34801561006857600080fd5b5061009d600480360381019080803573ffffffffffffffffffffffffffffffffffffffff16906020019092919050505061014d565b005b3480156100ab57600080fd5b506100b46101f2565b604051808273ffffffffffffffffffffffffffffffffffffffff1673ffffffffffffffffffffffffffffffffffffffff16815260200191505060405180910390f35b34801561010257600080fd5b5061010b610218565b604051808273ffffffffffffffffffffffffffffffffffffffff1673ffffffffffffffffffffffffffffffffffffffff16815260200191505060405180910390f35b6000809054906101000a900473ffffffffffffffffffffffffffffffffffffffff16600160006101000a81548173ffffffffffffffffffffffffffffffffffffffff021916908373ffffffffffffffffffffffffffffffffffffffff160217905550806000806101000a81548173ffffffffffffffffffffffffffffffffffffffff021916908373ffffffffffffffffffffffffffffffffffffffff16021790555050565b600160009054906101000a900473ffffffffffffffffffffffffffffffffffffffff1681565b6000809054906101000a900473ffffffffffffffffffffffffffffffffffffffff16815600a165627a7a72305820632cf8e3cc7cd2a8e050f7ca09f7509fc82ffe243dff3bd0f10eaa78d470679a0029",
  "source": "pragma solidity ^0.4.17;\n\nimport \"./ENS.sol\";\nimport \"./HashRegistrarSimplified.sol\";\n\ncontract DummyDeed is Deed {\n    function DummyDeed(address _owner) public {\n        owner = _owner;\n    }\n\n    function transfer(address newOwner) public {\n        previousOwner = owner;\n        owner = newOwner;\n    }\n}\n\n\ncontract DummyHashRegistrar is HashRegistrarSimplified {\n    ENS public ens;\n\n    mapping (bytes32 => DummyDeed) deeds;\n\n    function DummyHashRegistrar(ENS _ens) public {\n        ens = _ens;\n        // namehash('eth')\n        rootNode = 0x93cdeb708b7545dc668eb9280176169d1c33cfd8ed6f04690a0bcc88a93fc4ae;\n    }\n\n    function entries(bytes32 label) public view returns (Mode, address, uint, uint, uint) {\n        return (HashRegistrarSimplified.Mode.Owned, address(deeds[label]), 0, 0, 0);\n    }\n\n    function transfer(bytes32 label, address newOwner) public {\n        require(deeds[label].owner() == msg.sender);\n        deeds[label].transfer(newOwner);\n\n        if (ens.owner(rootNode) == address(this)) {\n            ens.setSubnodeOwner(rootNode, label, newOwner);\n        }\n    }\n\n    function setSubnodeOwner(bytes32 label, address owner) public {\n        ens.setSubnodeOwner(rootNode, label, owner);\n        deeds[label] = new DummyDeed(owner);\n    }\n}\n",
  "sourcePath": "/Users/significance/Code/df/subdomain-registrar/contracts/DummyHashRegistrar.sol",
  "compiler": {
    "name": "solc",
    "version": "0.4.24+commit.e67f0147.Emscripten.clang"
  },
  "schemaVersion": "2.0.1",
  "updatedAt": "2018-10-15T17:41:25.776Z"
}