{
  "contractName": "SubdomainRegistrar",
  "abi": [
    {
      "constant": true,
      "inputs": [],
      "name": "migration",
      "outputs": [
        {
          "name": "",
          "type": "address"
        }
      ],
      "payable": false,
      "stateMutability": "view",
      "type": "function"
    },
    {
      "constant": true,
      "inputs": [],
      "name": "registrarOwner",
      "outputs": [
        {
          "name": "",
          "type": "address"
        }
      ],
      "payable": false,
      "stateMutability": "view",
      "type": "function"
    },
    {
      "constant": true,
      "inputs": [],
      "name": "hashRegistrar",
      "outputs": [
        {
          "name": "",
          "type": "address"
        }
      ],
      "payable": false,
      "stateMutability": "view",
      "type": "function"
    },
    {
      "constant": true,
      "inputs": [],
      "name": "ens",
      "outputs": [
        {
          "name": "",
          "type": "address"
        }
      ],
      "payable": false,
      "stateMutability": "view",
      "type": "function"
    },
    {
      "constant": true,
      "inputs": [],
      "name": "stopped",
      "outputs": [
        {
          "name": "",
          "type": "bool"
        }
      ],
      "payable": false,
      "stateMutability": "view",
      "type": "function"
    },
    {
      "constant": true,
      "inputs": [],
      "name": "TLD_NODE",
      "outputs": [
        {
          "name": "",
          "type": "bytes32"
        }
      ],
      "payable": false,
      "stateMutability": "view",
      "type": "function"
    },
    {
      "inputs": [
        {
          "name": "_ens",
          "type": "address"
        }
      ],
      "payable": false,
      "stateMutability": "nonpayable",
      "type": "constructor"
    },
    {
      "anonymous": false,
      "inputs": [
        {
          "indexed": true,
          "name": "label",
          "type": "bytes32"
        },
        {
          "indexed": false,
          "name": "addr",
          "type": "address"
        }
      ],
      "name": "TransferAddressSet",
      "type": "event"
    },
    {
      "anonymous": false,
      "inputs": [
        {
          "indexed": true,
          "name": "label",
          "type": "bytes32"
        },
        {
          "indexed": false,
          "name": "name",
          "type": "string"
        }
      ],
      "name": "DomainTransferred",
      "type": "event"
    },
    {
      "anonymous": false,
      "inputs": [
        {
          "indexed": true,
          "name": "label",
          "type": "bytes32"
        },
        {
          "indexed": true,
          "name": "oldOwner",
          "type": "address"
        },
        {
          "indexed": true,
          "name": "newOwner",
          "type": "address"
        }
      ],
      "name": "OwnerChanged",
      "type": "event"
    },
    {
      "anonymous": false,
      "inputs": [
        {
          "indexed": true,
          "name": "label",
          "type": "bytes32"
        }
      ],
      "name": "DomainConfigured",
      "type": "event"
    },
    {
      "anonymous": false,
      "inputs": [
        {
          "indexed": true,
          "name": "label",
          "type": "bytes32"
        }
      ],
      "name": "DomainUnlisted",
      "type": "event"
    },
    {
      "anonymous": false,
      "inputs": [
        {
          "indexed": true,
          "name": "label",
          "type": "bytes32"
        },
        {
          "indexed": false,
          "name": "subdomain",
          "type": "string"
        },
        {
          "indexed": true,
          "name": "owner",
          "type": "address"
        },
        {
          "indexed": true,
          "name": "referrer",
          "type": "address"
        },
        {
          "indexed": false,
          "name": "price",
          "type": "uint256"
        }
      ],
      "name": "NewRegistration",
      "type": "event"
    },
    {
      "anonymous": false,
      "inputs": [
        {
          "indexed": true,
          "name": "label",
          "type": "bytes32"
        },
        {
          "indexed": false,
          "name": "subdomain",
          "type": "string"
        },
        {
          "indexed": false,
          "name": "amount",
          "type": "uint256"
        },
        {
          "indexed": false,
          "name": "expirationDate",
          "type": "uint256"
        }
      ],
      "name": "RentPaid",
      "type": "event"
    },
    {
      "constant": true,
      "inputs": [
        {
          "name": "label",
          "type": "bytes32"
        }
      ],
      "name": "owner",
      "outputs": [
        {
          "name": "",
          "type": "address"
        }
      ],
      "payable": false,
      "stateMutability": "view",
      "type": "function"
    },
    {
      "constant": false,
      "inputs": [
        {
          "name": "name",
          "type": "string"
        },
        {
          "name": "newOwner",
          "type": "address"
        }
      ],
      "name": "transfer",
      "outputs": [],
      "payable": false,
      "stateMutability": "nonpayable",
      "type": "function"
    },
    {
      "constant": false,
      "inputs": [
        {
          "name": "name",
          "type": "string"
        },
        {
          "name": "resolver",
          "type": "address"
        }
      ],
      "name": "setResolver",
      "outputs": [],
      "payable": false,
      "stateMutability": "nonpayable",
      "type": "function"
    },
    {
      "constant": false,
      "inputs": [
        {
          "name": "name",
          "type": "string"
        },
        {
          "name": "price",
          "type": "uint256"
        },
        {
          "name": "referralFeePPM",
          "type": "uint256"
        }
      ],
      "name": "configureDomain",
      "outputs": [],
      "payable": false,
      "stateMutability": "nonpayable",
      "type": "function"
    },
    {
      "constant": false,
      "inputs": [
        {
          "name": "name",
          "type": "string"
        },
        {
          "name": "price",
          "type": "uint256"
        },
        {
          "name": "referralFeePPM",
          "type": "uint256"
        },
        {
          "name": "_owner",
          "type": "address"
        },
        {
          "name": "_transfer",
          "type": "address"
        }
      ],
      "name": "configureDomainFor",
      "outputs": [],
      "payable": false,
      "stateMutability": "nonpayable",
      "type": "function"
    },
    {
      "constant": false,
      "inputs": [
        {
          "name": "name",
          "type": "string"
        },
        {
          "name": "transfer",
          "type": "address"
        }
      ],
      "name": "setTransferAddress",
      "outputs": [],
      "payable": false,
      "stateMutability": "nonpayable",
      "type": "function"
    },
    {
      "constant": false,
      "inputs": [
        {
          "name": "name",
          "type": "string"
        }
      ],
      "name": "unlistDomain",
      "outputs": [],
      "payable": false,
      "stateMutability": "nonpayable",
      "type": "function"
    },
    {
      "constant": true,
      "inputs": [
        {
          "name": "label",
          "type": "bytes32"
        },
        {
          "name": "subdomain",
          "type": "string"
        }
      ],
      "name": "query",
      "outputs": [
        {
          "name": "domain",
          "type": "string"
        },
        {
          "name": "price",
          "type": "uint256"
        },
        {
          "name": "rent",
          "type": "uint256"
        },
        {
          "name": "referralFeePPM",
          "type": "uint256"
        }
      ],
      "payable": false,
      "stateMutability": "view",
      "type": "function"
    },
    {
      "constant": false,
      "inputs": [
        {
          "name": "label",
          "type": "bytes32"
        },
        {
          "name": "subdomain",
          "type": "string"
        },
        {
          "name": "subdomainOwner",
          "type": "address"
        },
        {
          "name": "referrer",
          "type": "address"
        },
        {
          "name": "resolver",
          "type": "address"
        }
      ],
      "name": "register",
      "outputs": [],
      "payable": true,
      "stateMutability": "payable",
      "type": "function"
    },
    {
      "constant": true,
      "inputs": [
        {
          "name": "interfaceID",
          "type": "bytes4"
        }
      ],
      "name": "supportsInterface",
      "outputs": [
        {
          "name": "",
          "type": "bool"
        }
      ],
      "payable": false,
      "stateMutability": "pure",
      "type": "function"
    },
    {
      "constant": true,
      "inputs": [
        {
          "name": "label",
          "type": "bytes32"
        },
        {
          "name": "subdomain",
          "type": "string"
        }
      ],
      "name": "rentDue",
      "outputs": [
        {
          "name": "timestamp",
          "type": "uint256"
        }
      ],
      "payable": false,
      "stateMutability": "view",
      "type": "function"
    },
    {
      "constant": false,
      "inputs": [
        {
          "name": "name",
          "type": "string"
        }
      ],
      "name": "upgrade",
      "outputs": [],
      "payable": false,
      "stateMutability": "nonpayable",
      "type": "function"
    },
    {
      "constant": false,
      "inputs": [],
      "name": "stop",
      "outputs": [],
      "payable": false,
      "stateMutability": "nonpayable",
      "type": "function"
    },
    {
      "constant": false,
      "inputs": [
        {
          "name": "_migration",
          "type": "address"
        }
      ],
      "name": "setMigrationAddress",
      "outputs": [],
      "payable": false,
      "stateMutability": "nonpayable",
      "type": "function"
    },
    {
      "constant": false,
      "inputs": [
        {
          "name": "name",
          "type": "string"
        }
      ],
      "name": "migrate",
      "outputs": [],
      "payable": false,
      "stateMutability": "nonpayable",
      "type": "function"
    },
    {
      "constant": false,
      "inputs": [
        {
          "name": "newOwner",
          "type": "address"
        }
      ],
      "name": "transferOwnership",
      "outputs": [],
      "payable": false,
      "stateMutability": "nonpayable",
      "type": "function"
    },
    {
      "constant": false,
      "inputs": [
        {
          "name": "label",
          "type": "bytes32"
        },
        {
          "name": "subdomain",
          "type": "string"
        }
      ],
      "name": "payRent",
      "outputs": [],
      "payable": true,
      "stateMutability": "payable",
      "type": "function"
    }
  ],
  "bytecode": "0x608060405260008060006101000a81548160ff0219169083151502179055503480156200002b57600080fd5b50604051602080620039a48339810180604052810190808051906020019092919050505080600260006101000a81548173ffffffffffffffffffffffffffffffffffffffff021916908373ffffffffffffffffffffffffffffffffffffffff160217905550600260009054906101000a900473ffffffffffffffffffffffffffffffffffffffff1673ffffffffffffffffffffffffffffffffffffffff166302571be37f93cdeb708b7545dc668eb9280176169d1c33cfd8ed6f04690a0bcc88a93fc4ae6001026040518263ffffffff167c0100000000000000000000000000000000000000000000000000000000028152600401808260001916600019168152602001915050602060405180830381600087803b1580156200014d57600080fd5b505af115801562000162573d6000803e3d6000fd5b505050506040513d60208110156200017957600080fd5b8101908080519060200190929190505050600360006101000a81548173ffffffffffffffffffffffffffffffffffffffff021916908373ffffffffffffffffffffffffffffffffffffffff16021790555033600060016101000a81548173ffffffffffffffffffffffffffffffffffffffff021916908373ffffffffffffffffffffffffffffffffffffffff16021790555050613788806200021c6000396000f300608060405260043610610133576000357c0100000000000000000000000000000000000000000000000000000000900463ffffffff16806301ffc9a71461013857806302571be31461019c57806307da68f51461020d5780630da95761146102245780631705a3bd1461028d5780631cb82d79146102e45780632eef3d651461033b578063387c0cb4146104405780633f15457f146104975780634254b155146104ee5780634732a7dc146105b8578063660b7ad5146105fb578063733ccaba1461068657806375f12b211461070f57806396df35401461073e578063c9c5b5b414610771578063cb01a9bf146107da578063cf77525514610844578063da1fe7d514610901578063dcccb41d1461097e578063e34e788914610a07578063f2fde38b14610a70578063fbf58b3e14610ab3575b600080fd5b34801561014457600080fd5b5061018260048036038101908080357bffffffffffffffffffffffffffffffffffffffffffffffffffffffff19169060200190929190505050610b3c565b604051808215151515815260200191505060405180910390f35b3480156101a857600080fd5b506101cb6004803603810190808035600019169060200190929190505050610bd6565b604051808273ffffffffffffffffffffffffffffffffffffffff1673ffffffffffffffffffffffffffffffffffffffff16815260200191505060405180910390f35b34801561021957600080fd5b50610222610e0c565b005b34801561023057600080fd5b5061028b600480360381019080803590602001908201803590602001908080601f0160208091040260200160405190810160405280939291908181526020018383808284378201915050505050509192919290505050610e9f565b005b34801561029957600080fd5b506102a261137e565b604051808273ffffffffffffffffffffffffffffffffffffffff1673ffffffffffffffffffffffffffffffffffffffff16815260200191505060405180910390f35b3480156102f057600080fd5b506102f96113a4565b604051808273ffffffffffffffffffffffffffffffffffffffff1673ffffffffffffffffffffffffffffffffffffffff16815260200191505060405180910390f35b34801561034757600080fd5b506103b06004803603810190808035600019169060200190929190803590602001908201803590602001908080601f01602080910402602001604051908101604052809392919081815260200183838082843782019150505050505091929192905050506113ca565b6040518080602001858152602001848152602001838152602001828103825286818151815260200191508051906020019080838360005b838110156104025780820151818401526020810190506103e7565b50505050905090810190601f16801561042f5780820380516001836020036101000a031916815260200191505b509550505050505060405180910390f35b34801561044c57600080fd5b506104556116bd565b604051808273ffffffffffffffffffffffffffffffffffffffff1673ffffffffffffffffffffffffffffffffffffffff16815260200191505060405180910390f35b3480156104a357600080fd5b506104ac6116e3565b604051808273ffffffffffffffffffffffffffffffffffffffff1673ffffffffffffffffffffffffffffffffffffffff16815260200191505060405180910390f35b6105b66004803603810190808035600019169060200190929190803590602001908201803590602001908080601f0160208091040260200160405190810160405280939291908181526020018383808284378201915050505050509192919290803573ffffffffffffffffffffffffffffffffffffffff169060200190929190803573ffffffffffffffffffffffffffffffffffffffff169060200190929190803573ffffffffffffffffffffffffffffffffffffffff169060200190929190505050611709565b005b3480156105c457600080fd5b506105f9600480360381019080803573ffffffffffffffffffffffffffffffffffffffff169060200190929190505050611cb6565b005b34801561060757600080fd5b506106706004803603810190808035600019169060200190929190803590602001908201803590602001908080601f0160208091040260200160405190810160405280939291908181526020018383808284378201915050505050509192919290505050611d70565b6040518082815260200191505060405180910390f35b34801561069257600080fd5b5061070d600480360381019080803590602001908201803590602001908080601f0160208091040260200160405190810160405280939291908181526020018383808284378201915050505050509192919290803573ffffffffffffffffffffffffffffffffffffffff169060200190929190505050611d9b565b005b34801561071b57600080fd5b50610724611fe7565b604051808215151515815260200191505060405180910390f35b34801561074a57600080fd5b50610753611ff9565b60405180826000191660001916815260200191505060405180910390f35b34801561077d57600080fd5b506107d8600480360381019080803590602001908201803590602001908080601f0160208091040260200160405190810160405280939291908181526020018383808284378201915050505050509192919290505050612020565b005b6108426004803603810190808035600019169060200190929190803590602001908201803590602001908080601f01602080910402602001604051908101604052809392919081815260200183838082843782019150505050505091929192905050506125dc565b005b34801561085057600080fd5b506108ff600480360381019080803590602001908201803590602001908080601f01602080910402602001604051908101604052809392919081815260200183838082843782019150505050505091929192908035906020019092919080359060200190929190803573ffffffffffffffffffffffffffffffffffffffff169060200190929190803573ffffffffffffffffffffffffffffffffffffffff1690602001909291905050506125e1565b005b34801561090d57600080fd5b5061097c600480360381019080803590602001908201803590602001908080601f01602080910402602001604051908101604052809392919081815260200183838082843782019150505050505091929192908035906020019092919080359060200190929190505050612a77565b005b34801561098a57600080fd5b50610a05600480360381019080803590602001908201803590602001908080601f0160208091040260200160405190810160405280939291908181526020018383808284378201915050505050509192919290803573ffffffffffffffffffffffffffffffffffffffff169060200190929190505050612a8a565b005b348015610a1357600080fd5b50610a6e600480360381019080803590602001908201803590602001908080601f0160208091040260200160405190810160405280939291908181526020018383808284378201915050505050509192919290505050612caf565b005b348015610a7c57600080fd5b50610ab1600480360381019080803573ffffffffffffffffffffffffffffffffffffffff169060200190929190505050612e98565b005b348015610abf57600080fd5b50610b3a600480360381019080803590602001908201803590602001908080601f0160208091040260200160405190810160405280939291908181526020018383808284378201915050505050509192919290803573ffffffffffffffffffffffffffffffffffffffff169060200190929190505050612f38565b005b60006301ffc9a77c010000000000000000000000000000000000000000000000000000000002827bffffffffffffffffffffffffffffffffffffffffffffffffffffffff19161480610bcf575063c1b15f5a7c010000000000000000000000000000000000000000000000000000000002827bffffffffffffffffffffffffffffffffffffffffffffffffffffffff1916145b9050919050565b600080600060046000856000191660001916815260200190815260200160002060010160009054906101000a900473ffffffffffffffffffffffffffffffffffffffff1673ffffffffffffffffffffffffffffffffffffffff16141515610c7d5760046000846000191660001916815260200190815260200160002060010160009054906101000a900473ffffffffffffffffffffffffffffffffffffffff169150610e06565b610c86836131a6565b90503073ffffffffffffffffffffffffffffffffffffffff168173ffffffffffffffffffffffffffffffffffffffff16638da5cb5b6040518163ffffffff167c0100000000000000000000000000000000000000000000000000000000028152600401602060405180830381600087803b158015610d0357600080fd5b505af1158015610d17573d6000803e3d6000fd5b505050506040513d6020811015610d2d57600080fd5b810190808051906020019092919050505073ffffffffffffffffffffffffffffffffffffffff16141515610d645760009150610e06565b8073ffffffffffffffffffffffffffffffffffffffff1663674f220f6040518163ffffffff167c0100000000000000000000000000000000000000000000000000000000028152600401602060405180830381600087803b158015610dc857600080fd5b505af1158015610ddc573d6000803e3d6000fd5b505050506040513d6020811015610df257600080fd5b810190808051906020019092919050505091505b50919050565b6000809054906101000a900460ff16151515610e2757600080fd5b600060019054906101000a900473ffffffffffffffffffffffffffffffffffffffff1673ffffffffffffffffffffffffffffffffffffffff163373ffffffffffffffffffffffffffffffffffffffff16141515610e8357600080fd5b60016000806101000a81548160ff021916908315150217905550565b600080826040518082805190602001908083835b602083101515610ed85780518252602082019150602081019050602083039250610eb3565b6001836020036101000a03801982511681845116808217855250505050505090500191505060405180910390203373ffffffffffffffffffffffffffffffffffffffff16610f2582610bd6565b73ffffffffffffffffffffffffffffffffffffffff16141515610f4757600080fd5b600360009054906101000a900473ffffffffffffffffffffffffffffffffffffffff1673ffffffffffffffffffffffffffffffffffffffff16600260009054906101000a900473ffffffffffffffffffffffffffffffffffffffff1673ffffffffffffffffffffffffffffffffffffffff166302571be37f93cdeb708b7545dc668eb9280176169d1c33cfd8ed6f04690a0bcc88a93fc4ae6001026040518263ffffffff167c0100000000000000000000000000000000000000000000000000000000028152600401808260001916600019168152602001915050602060405180830381600087803b15801561103c57600080fd5b505af1158015611050573d6000803e3d6000fd5b505050506040513d602081101561106657600080fd5b810190808051906020019092919050505073ffffffffffffffffffffffffffffffffffffffff161415151561109a57600080fd5b836040518082805190602001908083835b6020831015156110d057805182526020820191506020810190506020830392506110ab565b6001836020036101000a0380198251168184511680821785525050505050509050019150506040518091039020925060046000846000191660001916815260200190815260200160002060020160009054906101000a900473ffffffffffffffffffffffffffffffffffffffff16915060008273ffffffffffffffffffffffffffffffffffffffff161415151561116657600080fd5b60046000846000191660001916815260200190815260200160002060008082016000611192919061366f565b6001820160006101000a81549073ffffffffffffffffffffffffffffffffffffffff02191690556002820160006101000a81549073ffffffffffffffffffffffffffffffffffffffff0219169055600382016000905560048201600090555050600360009054906101000a900473ffffffffffffffffffffffffffffffffffffffff1673ffffffffffffffffffffffffffffffffffffffff166379ce9fac84846040518363ffffffff167c01000000000000000000000000000000000000000000000000000000000281526004018083600019166000191681526020018273ffffffffffffffffffffffffffffffffffffffff1673ffffffffffffffffffffffffffffffffffffffff16815260200192505050600060405180830381600087803b1580156112bf57600080fd5b505af11580156112d3573d6000803e3d6000fd5b5050505082600019167f8c0dd32279c25300d82425bebe31a5c703918d83d2bb57a1155dfa6cbba61cf8856040518080602001828103825283818151815260200191508051906020019080838360005b8381101561133e578082015181840152602081019050611323565b50505050905090810190601f16801561136b5780820380516001836020036101000a031916815260200191505b509250505060405180910390a250505050565b600160009054906101000a900473ffffffffffffffffffffffffffffffffffffffff1681565b600060019054906101000a900473ffffffffffffffffffffffffffffffffffffffff1681565b60606000806000806000807f93cdeb708b7545dc668eb9280176169d1c33cfd8ed6f04690a0bcc88a93fc4ae600102896040518083600019166000191681526020018260001916600019168152602001925050506040518091039020925082886040518082805190602001908083835b60208310151561145f578051825260208201915060208101905060208303925061143a565b6001836020036101000a0380198251168184511680821785525050505050509050019150506040518091039020604051808360001916600019168152602001826000191660001916815260200192505050604051809103902091506000600260009054906101000a900473ffffffffffffffffffffffffffffffffffffffff1673ffffffffffffffffffffffffffffffffffffffff166302571be3846040518263ffffffff167c0100000000000000000000000000000000000000000000000000000000028152600401808260001916600019168152602001915050602060405180830381600087803b15801561155557600080fd5b505af1158015611569573d6000803e3d6000fd5b505050506040513d602081101561157f57600080fd5b810190808051906020019092919050505073ffffffffffffffffffffffffffffffffffffffff161415156115dc576000806000602060405190810160405280600081525092919082925081915080905096509650965096506116b1565b600460008a60001916600019168152602001908152602001600020905080600001816003015460008360040154838054600181600116156101000203166002900480601f01602080910402602001604051908101604052809291908181526020018280546001816001161561010002031660029004801561169e5780601f106116735761010080835404028352916020019161169e565b820191906000526020600020905b81548152906001019060200180831161168157829003601f168201915b5050505050935081915096509650965096505b50505092959194509250565b600360009054906101000a900473ffffffffffffffffffffffffffffffffffffffff1681565b600260009054906101000a900473ffffffffffffffffffffffffffffffffffffffff1681565b60008060008060008060009054906101000a900460ff1615151561172c57600080fd5b7f93cdeb708b7545dc668eb9280176169d1c33cfd8ed6f04690a0bcc88a93fc4ae6001028a60405180836000191660001916815260200182600019166000191681526020019250505060405180910390209450886040518082805190602001908083835b6020831015156117b55780518252602082019150602081019050602083039250611790565b6001836020036101000a03801982511681845116808217855250505050505090500191505060405180910390209350600073ffffffffffffffffffffffffffffffffffffffff16600260009054906101000a900473ffffffffffffffffffffffffffffffffffffffff1673ffffffffffffffffffffffffffffffffffffffff166302571be3878760405180836000191660001916815260200182600019166000191681526020019250505060405180910390206040518263ffffffff167c0100000000000000000000000000000000000000000000000000000000028152600401808260001916600019168152602001915050602060405180830381600087803b1580156118c257600080fd5b505af11580156118d6573d6000803e3d6000fd5b505050506040513d60208110156118ec57600080fd5b810190808051906020019092919050505073ffffffffffffffffffffffffffffffffffffffff1614151561191f57600080fd5b600460008b60001916600019168152602001908152602001600020925089600019168360000160405180828054600181600116156101000203166002900480156119a05780601f1061197e5761010080835404028352918201916119a0565b820191906000526020600020905b81548152906001019060200180831161198c575b50509150506040518091039020600019161415156119bd57600080fd5b826003015434101515156119d057600080fd5b8260030154341115611a2a573373ffffffffffffffffffffffffffffffffffffffff166108fc846003015434039081150290604051600060405180830381858888f19350505050158015611a28573d6000803e3d6000fd5b505b8260030154915060008360030154846004015402118015611a62575060008773ffffffffffffffffffffffffffffffffffffffff1614155b8015611abe57508260010160009054906101000a900473ffffffffffffffffffffffffffffffffffffffff1673ffffffffffffffffffffffffffffffffffffffff168773ffffffffffffffffffffffffffffffffffffffff1614155b15611b2b57620f42408360040154846003015402811515611adb57fe5b0490508673ffffffffffffffffffffffffffffffffffffffff166108fc829081150290604051600060405180830381858888f19350505050158015611b24573d6000803e3d6000fd5b5080820391505b6000821115611ba0578260010160009054906101000a900473ffffffffffffffffffffffffffffffffffffffff1673ffffffffffffffffffffffffffffffffffffffff166108fc839081150290604051600060405180830381858888f19350505050158015611b9e573d6000803e3d6000fd5b505b60008873ffffffffffffffffffffffffffffffffffffffff161415611bc3573397505b611bcf85858a896132b4565b8673ffffffffffffffffffffffffffffffffffffffff168873ffffffffffffffffffffffffffffffffffffffff168b600019167ffa38f9920801763ca6e4ee19135fb26a4fa11c0a34f7117455064991a1a3e6588c87600301546040518080602001838152602001828103825284818151815260200191508051906020019080838360005b83811015611c6f578082015181840152602081019050611c54565b50505050905090810190601f168015611c9c5780820380516001836020036101000a031916815260200191505b50935050505060405180910390a450505050505050505050565b600060019054906101000a900473ffffffffffffffffffffffffffffffffffffffff1673ffffffffffffffffffffffffffffffffffffffff163373ffffffffffffffffffffffffffffffffffffffff16141515611d1257600080fd5b6000809054906101000a900460ff161515611d2c57600080fd5b80600160006101000a81548173ffffffffffffffffffffffffffffffffffffffff021916908373ffffffffffffffffffffffffffffffffffffffff16021790555050565b60007fffffffffffffffffffffffffffffffffffffffffffffffffffffffffffffffff905092915050565b600080836040518082805190602001908083835b602083101515611dd45780518252602082019150602081019050602083039250611daf565b6001836020036101000a03801982511681845116808217855250505050505090500191505060405180910390203373ffffffffffffffffffffffffffffffffffffffff16611e2182610bd6565b73ffffffffffffffffffffffffffffffffffffffff16141515611e4357600080fd5b846040518082805190602001908083835b602083101515611e795780518252602082019150602081019050602083039250611e54565b6001836020036101000a038019825116818451168082178552505050505050905001915050604051809103902092507f93cdeb708b7545dc668eb9280176169d1c33cfd8ed6f04690a0bcc88a93fc4ae6001028360405180836000191660001916815260200182600019166000191681526020019250505060405180910390209150600260009054906101000a900473ffffffffffffffffffffffffffffffffffffffff1673ffffffffffffffffffffffffffffffffffffffff16631896f70a83866040518363ffffffff167c01000000000000000000000000000000000000000000000000000000000281526004018083600019166000191681526020018273ffffffffffffffffffffffffffffffffffffffff1673ffffffffffffffffffffffffffffffffffffffff16815260200192505050600060405180830381600087803b158015611fc857600080fd5b505af1158015611fdc573d6000803e3d6000fd5b505050505050505050565b6000809054906101000a900460ff1681565b7f93cdeb708b7545dc668eb9280176169d1c33cfd8ed6f04690a0bcc88a93fc4ae60010281565b600080826040518082805190602001908083835b6020831015156120595780518252602082019150602081019050602083039250612034565b6001836020036101000a03801982511681845116808217855250505050505090500191505060405180910390203373ffffffffffffffffffffffffffffffffffffffff166120a682610bd6565b73ffffffffffffffffffffffffffffffffffffffff161415156120c857600080fd5b6000809054906101000a900460ff1615156120e257600080fd5b6000600160009054906101000a900473ffffffffffffffffffffffffffffffffffffffff1673ffffffffffffffffffffffffffffffffffffffff161415151561212a57600080fd5b836040518082805190602001908083835b602083101515612160578051825260208201915060208101905060208303925061213b565b6001836020036101000a038019825116818451168082178552505050505050905001915050604051809103902092506004600084600019166000191681526020019081526020016000209150600360009054906101000a900473ffffffffffffffffffffffffffffffffffffffff1673ffffffffffffffffffffffffffffffffffffffff166379ce9fac84600160009054906101000a900473ffffffffffffffffffffffffffffffffffffffff166040518363ffffffff167c01000000000000000000000000000000000000000000000000000000000281526004018083600019166000191681526020018273ffffffffffffffffffffffffffffffffffffffff1673ffffffffffffffffffffffffffffffffffffffff16815260200192505050600060405180830381600087803b15801561229b57600080fd5b505af11580156122af573d6000803e3d6000fd5b50505050600160009054906101000a900473ffffffffffffffffffffffffffffffffffffffff1673ffffffffffffffffffffffffffffffffffffffff1663cf77525583600001846003015485600401548660010160009054906101000a900473ffffffffffffffffffffffffffffffffffffffff168760020160009054906101000a900473ffffffffffffffffffffffffffffffffffffffff166040518663ffffffff167c010000000000000000000000000000000000000000000000000000000002815260040180806020018681526020018581526020018473ffffffffffffffffffffffffffffffffffffffff1673ffffffffffffffffffffffffffffffffffffffff1681526020018373ffffffffffffffffffffffffffffffffffffffff1673ffffffffffffffffffffffffffffffffffffffff16815260200182810382528781815460018160011615610100020316600290048152602001915080546001816001161561010002031660029004801561246d5780601f106124425761010080835404028352916020019161246d565b820191906000526020600020905b81548152906001019060200180831161245057829003601f168201915b50509650505050505050600060405180830381600087803b15801561249157600080fd5b505af11580156124a5573d6000803e3d6000fd5b50505050600460008460001916600019168152602001908152602001600020600080820160006124d5919061366f565b6001820160006101000a81549073ffffffffffffffffffffffffffffffffffffffff02191690556002820160006101000a81549073ffffffffffffffffffffffffffffffffffffffff021916905560038201600090556004820160009055505082600019167f8c0dd32279c25300d82425bebe31a5c703918d83d2bb57a1155dfa6cbba61cf8856040518080602001828103825283818151815260200191508051906020019080838360005b8381101561259c578082015181840152602081019050612581565b50505050905090810190601f1680156125c95780820380516001836020036101000a031916815260200191505b509250505060405180910390a250505050565b600080fd5b600080866040518082805190602001908083835b60208310151561261a57805182526020820191506020810190506020830392506125f5565b6001836020036101000a03801982511681845116808217855250505050505090500191505060405180910390203373ffffffffffffffffffffffffffffffffffffffff1661266782610bd6565b73ffffffffffffffffffffffffffffffffffffffff1614151561268957600080fd5b876040518082805190602001908083835b6020831015156126bf578051825260208201915060208101905060208303925061269a565b6001836020036101000a03801982511681845116808217855250505050505090500191505060405180910390209250600460008460001916600019168152602001908152602001600020915060008260020160009054906101000a900473ffffffffffffffffffffffffffffffffffffffff1673ffffffffffffffffffffffffffffffffffffffff16148061276a575060008473ffffffffffffffffffffffffffffffffffffffff16145b806127c457508373ffffffffffffffffffffffffffffffffffffffff168260020160009054906101000a900473ffffffffffffffffffffffffffffffffffffffff1673ffffffffffffffffffffffffffffffffffffffff16145b15156127cf57600080fd5b8473ffffffffffffffffffffffffffffffffffffffff168260010160009054906101000a900473ffffffffffffffffffffffffffffffffffffffff1673ffffffffffffffffffffffffffffffffffffffff1614151561286c57848260010160006101000a81548173ffffffffffffffffffffffffffffffffffffffff021916908373ffffffffffffffffffffffffffffffffffffffff1602179055505b82600019168260000160405180828054600181600116156101000203166002900480156128d05780601f106128ae5761010080835404028352918201916128d0565b820191906000526020600020905b8154815290600101906020018083116128bc575b505091505060405180910390206000191614151561290257878260000190805190602001906129009291906136b7565b505b8682600301819055508582600401819055508373ffffffffffffffffffffffffffffffffffffffff168260020160009054906101000a900473ffffffffffffffffffffffffffffffffffffffff1673ffffffffffffffffffffffffffffffffffffffff161415801561298b575060008473ffffffffffffffffffffffffffffffffffffffff1614155b15612a3c57838260020160006101000a81548173ffffffffffffffffffffffffffffffffffffffff021916908373ffffffffffffffffffffffffffffffffffffffff16021790555082600019167f2d7de2863f470ffa77d12170d4a38ab17226373c6d1d81d1cc75defe123e45fe85604051808273ffffffffffffffffffffffffffffffffffffffff1673ffffffffffffffffffffffffffffffffffffffff16815260200191505060405180910390a25b82600019167f1427993bb6b6c16d8953c450c37078c8f41196e2e2db1619cda06620143e2d9160405160405180910390a25050505050505050565b612a858383833360006125e1565b505050565b600080836040518082805190602001908083835b602083101515612ac35780518252602082019150602081019050602083039250612a9e565b6001836020036101000a03801982511681845116808217855250505050505090500191505060405180910390203373ffffffffffffffffffffffffffffffffffffffff16612b1082610bd6565b73ffffffffffffffffffffffffffffffffffffffff16141515612b3257600080fd5b846040518082805190602001908083835b602083101515612b685780518252602082019150602081019050602083039250612b43565b6001836020036101000a03801982511681845116808217855250505050505090500191505060405180910390209250600460008460001916600019168152602001908152602001600020915060008260020160009054906101000a900473ffffffffffffffffffffffffffffffffffffffff1673ffffffffffffffffffffffffffffffffffffffff16141515612bfd57600080fd5b838260020160006101000a81548173ffffffffffffffffffffffffffffffffffffffff021916908373ffffffffffffffffffffffffffffffffffffffff16021790555082600019167f2d7de2863f470ffa77d12170d4a38ab17226373c6d1d81d1cc75defe123e45fe85604051808273ffffffffffffffffffffffffffffffffffffffff1673ffffffffffffffffffffffffffffffffffffffff16815260200191505060405180910390a25050505050565b600080826040518082805190602001908083835b602083101515612ce85780518252602082019150602081019050602083039250612cc3565b6001836020036101000a03801982511681845116808217855250505050505090500191505060405180910390203373ffffffffffffffffffffffffffffffffffffffff16612d3582610bd6565b73ffffffffffffffffffffffffffffffffffffffff16141515612d5757600080fd5b836040518082805190602001908083835b602083101515612d8d5780518252602082019150602081019050602083039250612d68565b6001836020036101000a03801982511681845116808217855250505050505090500191505060405180910390209250600460008460001916600019168152602001908152602001600020915082600019167f77f7b610de5055c8f704e6a3b12874468f5785f3a7d1007b67a8a4b4c7ed88fc60405160405180910390a26020604051908101604052806000815250826000019080519060200190612e329291906136b7565b50612e3c83610bd6565b8260010160006101000a81548173ffffffffffffffffffffffffffffffffffffffff021916908373ffffffffffffffffffffffffffffffffffffffff160217905550600082600301819055506000826004018190555050505050565b600060019054906101000a900473ffffffffffffffffffffffffffffffffffffffff1673ffffffffffffffffffffffffffffffffffffffff163373ffffffffffffffffffffffffffffffffffffffff16141515612ef457600080fd5b80600060016101000a81548173ffffffffffffffffffffffffffffffffffffffff021916908373ffffffffffffffffffffffffffffffffffffffff16021790555050565b6000826040518082805190602001908083835b602083101515612f705780518252602082019150602081019050602083039250612f4b565b6001836020036101000a03801982511681845116808217855250505050505090500191505060405180910390203373ffffffffffffffffffffffffffffffffffffffff16612fbd82610bd6565b73ffffffffffffffffffffffffffffffffffffffff16141515612fdf57600080fd5b836040518082805190602001908083835b6020831015156130155780518252602082019150602081019050602083039250612ff0565b6001836020036101000a038019825116818451168082178552505050505050905001915050604051809103902091508273ffffffffffffffffffffffffffffffffffffffff1660046000846000191660001916815260200190815260200160002060010160009054906101000a900473ffffffffffffffffffffffffffffffffffffffff1673ffffffffffffffffffffffffffffffffffffffff16856040518082805190602001908083835b6020831015156130e657805182526020820191506020810190506020830392506130c1565b6001836020036101000a0380198251168184511680821785525050505050509050019150506040518091039020600019167f06e9c07310f63759634ddbb7257dbb19ca404f90bd6bdef1d3386fab033cebce60405160405180910390a48260046000846000191660001916815260200190815260200160002060010160006101000a81548173ffffffffffffffffffffffffffffffffffffffff021916908373ffffffffffffffffffffffffffffffffffffffff16021790555050505050565b600080600360009054906101000a900473ffffffffffffffffffffffffffffffffffffffff1673ffffffffffffffffffffffffffffffffffffffff1663267b6922846040518263ffffffff167c010000000000000000000000000000000000000000000000000000000002815260040180826000191660001916815260200191505060a060405180830381600087803b15801561324257600080fd5b505af1158015613256573d6000803e3d6000fd5b505050506040513d60a081101561326c57600080fd5b81019080805190602001909291908051906020019092919080519060200190929190805190602001909291908051906020019092919050505050505091505080915050919050565b6000600260009054906101000a900473ffffffffffffffffffffffffffffffffffffffff1673ffffffffffffffffffffffffffffffffffffffff166306ab59238686306040518463ffffffff167c010000000000000000000000000000000000000000000000000000000002815260040180846000191660001916815260200183600019166000191681526020018273ffffffffffffffffffffffffffffffffffffffff1673ffffffffffffffffffffffffffffffffffffffff1681526020019350505050600060405180830381600087803b15801561339357600080fd5b505af11580156133a7573d6000803e3d6000fd5b50505050848460405180836000191660001916815260200182600019166000191681526020019250505060405180910390209050600260009054906101000a900473ffffffffffffffffffffffffffffffffffffffff1673ffffffffffffffffffffffffffffffffffffffff16631896f70a82846040518363ffffffff167c01000000000000000000000000000000000000000000000000000000000281526004018083600019166000191681526020018273ffffffffffffffffffffffffffffffffffffffff1673ffffffffffffffffffffffffffffffffffffffff16815260200192505050600060405180830381600087803b1580156134a857600080fd5b505af11580156134bc573d6000803e3d6000fd5b505050508173ffffffffffffffffffffffffffffffffffffffff1663d5fa2b0082856040518363ffffffff167c01000000000000000000000000000000000000000000000000000000000281526004018083600019166000191681526020018273ffffffffffffffffffffffffffffffffffffffff1673ffffffffffffffffffffffffffffffffffffffff16815260200192505050600060405180830381600087803b15801561356b57600080fd5b505af115801561357f573d6000803e3d6000fd5b50505050600260009054906101000a900473ffffffffffffffffffffffffffffffffffffffff1673ffffffffffffffffffffffffffffffffffffffff16635b0fc9c382856040518363ffffffff167c01000000000000000000000000000000000000000000000000000000000281526004018083600019166000191681526020018273ffffffffffffffffffffffffffffffffffffffff1673ffffffffffffffffffffffffffffffffffffffff16815260200192505050600060405180830381600087803b15801561365057600080fd5b505af1158015613664573d6000803e3d6000fd5b505050505050505050565b50805460018160011615610100020316600290046000825580601f1061369557506136b4565b601f0160209004906000526020600020908101906136b39190613737565b5b50565b828054600181600116156101000203166002900490600052602060002090601f016020900481019282601f106136f857805160ff1916838001178555613726565b82800160010185558215613726579182015b8281111561372557825182559160200191906001019061370a565b5b5090506137339190613737565b5090565b61375991905b8082111561375557600081600090555060010161373d565b5090565b905600a165627a7a72305820d29b836efeb58269e3a8880eb46cc44083d8f143f647e22c15909ab9a0d6f7600029",
  "source": "pragma solidity ^0.4.17;\n\nimport \"./ENS.sol\";\nimport \"./Resolver.sol\";\nimport \"./RegistrarInterface.sol\";\nimport \"./HashRegistrarSimplified.sol\";\n\n/**\n * @dev Implements an ENS registrar that sells subdomains on behalf of their owners.\n *\n * Users may register a subdomain by calling `register` with the name of the domain\n * they wish to register under, and the label hash of the subdomain they want to\n * register. They must also specify the new owner of the domain, and the referrer,\n * who is paid an optional finder's fee. The registrar then configures a simple\n * default resolver, which resolves `addr` lookups to the new owner, and sets\n * the `owner` account as the owner of the subdomain in ENS.\n *\n * New domains may be added by calling `configureDomain`, then transferring\n * ownership in the ENS registry to this contract. Ownership in the contract\n * may be transferred using `transfer`, and a domain may be unlisted for sale\n * using `unlistDomain`. There is (deliberately) no way to recover ownership\n * in ENS once the name is transferred to this registrar.\n *\n * Critically, this contract does not check one key property of a listed domain:\n *\n * - Is the name UTS46 normalised?\n *\n * User applications MUST check these two elements for each domain before\n * offering them to users for registration.\n *\n * Applications should additionally check that the domains they are offering to\n * register are controlled by this registrar, since calls to `register` will\n * fail if this is not the case.\n */\ncontract SubdomainRegistrar is RegistrarInterface {\n\n    // namehash('eth')\n    bytes32 constant public TLD_NODE = 0x93cdeb708b7545dc668eb9280176169d1c33cfd8ed6f04690a0bcc88a93fc4ae;\n\n    bool public stopped = false;\n    address public registrarOwner;\n    address public migration;\n\n    ENS public ens;\n    HashRegistrarSimplified public hashRegistrar;\n\n    struct Domain {\n        string name;\n        address owner;\n        address transferAddress;\n        uint price;\n        uint referralFeePPM;\n    }\n\n    mapping (bytes32 => Domain) domains;\n\n    modifier new_registrar() {\n        require(ens.owner(TLD_NODE) != address(hashRegistrar));\n        _;\n    }\n\n    modifier owner_only(bytes32 label) {\n        require(owner(label) == msg.sender);\n        _;\n    }\n\n    modifier not_stopped() {\n        require(!stopped);\n        _;\n    }\n\n    modifier registrar_owner_only() {\n        require(msg.sender == registrarOwner);\n        _;\n    }\n\n    event TransferAddressSet(bytes32 indexed label, address addr);\n    event DomainTransferred(bytes32 indexed label, string name);\n\n    function SubdomainRegistrar(ENS _ens) public {\n        ens = _ens;\n        hashRegistrar = HashRegistrarSimplified(ens.owner(TLD_NODE));\n        registrarOwner = msg.sender;\n    }\n\n    /**\n     * @dev owner returns the address of the account that controls a domain.\n     *      Initially this is a null address. If the name has been\n     *      transferred to this contract, then the internal mapping is consulted\n     *      to determine who controls it. If the owner is not set,\n     *      the previous owner of the deed is returned.\n     * @param label The label hash of the deed to check.\n     * @return The address owning the deed.\n     */\n    function owner(bytes32 label) public view returns (address) {\n\n        if (domains[label].owner != 0x0) {\n            return domains[label].owner;\n        }\n\n        Deed domainDeed = deed(label);\n        if (domainDeed.owner() != address(this)) {\n            return 0x0;\n        }\n\n        return domainDeed.previousOwner();\n    }\n\n    /**\n     * @dev Transfers internal control of a name to a new account. Does not update\n     *      ENS.\n     * @param name The name to transfer.\n     * @param newOwner The address of the new owner.\n     */\n    function transfer(string name, address newOwner) public owner_only(keccak256(name)) {\n        bytes32 label = keccak256(name);\n        OwnerChanged(keccak256(name), domains[label].owner, newOwner);\n        domains[label].owner = newOwner;\n    }\n\n    /**\n     * @dev Sets the resolver record for a name in ENS.\n     * @param name The name to set the resolver for.\n     * @param resolver The address of the resolver\n     */\n    function setResolver(string name, address resolver) public owner_only(keccak256(name)) {\n        bytes32 label = keccak256(name);\n        bytes32 node = keccak256(TLD_NODE, label);\n        ens.setResolver(node, resolver);\n    }\n\n    /**\n     * @dev Configures a domain for sale.\n     * @param name The name to configure.\n     * @param price The price in wei to charge for subdomain registrations\n     * @param referralFeePPM The referral fee to offer, in parts per million\n     */\n    function configureDomain(string name, uint price, uint referralFeePPM) public {\n        configureDomainFor(name, price, referralFeePPM, msg.sender, 0x0);\n    }\n\n    /**\n     * @dev Configures a domain, optionally transferring it to a new owner.\n     * @param name The name to configure.\n     * @param price The price in wei to charge for subdomain registrations.\n     * @param referralFeePPM The referral fee to offer, in parts per million.\n     * @param _owner The address to assign ownership of this domain to.\n     * @param _transfer The address to set as the transfer address for the name\n     *        when the permanent registrar is replaced. Can only be set to a non-zero\n     *        value once.\n     */\n    function configureDomainFor(string name, uint price, uint referralFeePPM, address _owner, address _transfer) public owner_only(keccak256(name)) {\n        bytes32 label = keccak256(name);\n        Domain storage domain = domains[label];\n\n        // Don't allow changing the transfer address once set. Treat 0 as \"don't change\" for convenience.\n        require(domain.transferAddress == 0 || _transfer == 0 || domain.transferAddress == _transfer);\n\n        if (domain.owner != _owner) {\n            domain.owner = _owner;\n        }\n\n        if (keccak256(domain.name) != label) {\n            // New listing\n            domain.name = name;\n        }\n\n        domain.price = price;\n        domain.referralFeePPM = referralFeePPM;\n\n        if (domain.transferAddress != _transfer && _transfer != 0) {\n            domain.transferAddress = _transfer;\n            TransferAddressSet(label, _transfer);\n        }\n\n        DomainConfigured(label);\n    }\n\n    /**\n     * @dev Sets the transfer address of a domain for after an ENS update.\n     * @param name The name for which to set the transfer address.\n     * @param transfer The address to transfer to.\n     */\n    function setTransferAddress(string name, address transfer) public owner_only(keccak256(name)) {\n        bytes32 label = keccak256(name);\n        Domain storage domain = domains[label];\n\n        require(domain.transferAddress == 0x0);\n\n        domain.transferAddress = transfer;\n        TransferAddressSet(label, transfer);\n    }\n\n    /**\n     * @dev Unlists a domain\n     * May only be called by the owner.\n     * @param name The name of the domain to unlist.\n     */\n    function unlistDomain(string name) public owner_only(keccak256(name)) {\n        bytes32 label = keccak256(name);\n        Domain storage domain = domains[label];\n        DomainUnlisted(label);\n\n        domain.name = '';\n        domain.owner = owner(label);\n        domain.price = 0;\n        domain.referralFeePPM = 0;\n    }\n\n    /**\n     * @dev Returns information about a subdomain.\n     * @param label The label hash for the domain.\n     * @param subdomain The label for the subdomain.\n     * @return domain The name of the domain, or an empty string if the subdomain\n     *                is unavailable.\n     * @return price The price to register a subdomain, in wei.\n     * @return rent The rent to retain a subdomain, in wei per second.\n     * @return referralFeePPM The referral fee for the dapp, in ppm.\n     */\n    function query(bytes32 label, string subdomain) public view returns (string domain, uint price, uint rent, uint referralFeePPM) {\n        bytes32 node = keccak256(TLD_NODE, label);\n        bytes32 subnode = keccak256(node, keccak256(subdomain));\n\n        if (ens.owner(subnode) != 0) {\n            return ('', 0, 0, 0);\n        }\n\n        Domain data = domains[label];\n        return (data.name, data.price, 0, data.referralFeePPM);\n    }\n\n    /**\n     * @dev Registers a subdomain.\n     * @param label The label hash of the domain to register a subdomain of.\n     * @param subdomain The desired subdomain label.\n     * @param subdomainOwner The account that should own the newly configured subdomain.\n     * @param referrer The address of the account to receive the referral fee.\n     */\n    function register(bytes32 label, string subdomain, address subdomainOwner, address referrer, address resolver) public not_stopped payable {\n        bytes32 domainNode = keccak256(TLD_NODE, label);\n        bytes32 subdomainLabel = keccak256(subdomain);\n\n        // Subdomain must not be registered already.\n        require(ens.owner(keccak256(domainNode, subdomainLabel)) == address(0));\n\n        Domain storage domain = domains[label];\n\n        // Domain must be available for registration\n        require(keccak256(domain.name) == label);\n\n        // User must have paid enough\n        require(msg.value >= domain.price);\n\n        // Send any extra back\n        if (msg.value > domain.price) {\n            msg.sender.transfer(msg.value - domain.price);\n        }\n\n        // Send any referral fee\n        uint256 total = domain.price;\n        if (domain.referralFeePPM * domain.price > 0 && referrer != 0 && referrer != domain.owner) {\n            uint256 referralFee = (domain.price * domain.referralFeePPM) / 1000000;\n            referrer.transfer(referralFee);\n            total -= referralFee;\n        }\n\n        // Send the registration fee\n        if (total > 0) {\n            domain.owner.transfer(total);\n        }\n\n        // Register the domain\n        if (subdomainOwner == 0) {\n            subdomainOwner = msg.sender;\n        }\n        doRegistration(domainNode, subdomainLabel, subdomainOwner, Resolver(resolver));\n\n        NewRegistration(label, subdomain, subdomainOwner, referrer, domain.price);\n    }\n\n    function doRegistration(bytes32 node, bytes32 label, address subdomainOwner, Resolver resolver) internal {\n        // Get the subdomain so we can configure it\n        ens.setSubnodeOwner(node, label, this);\n\n        bytes32 subnode = keccak256(node, label);\n        // Set the subdomain's resolver\n        ens.setResolver(subnode, resolver);\n\n        // Set the address record on the resolver\n        resolver.setAddr(subnode, subdomainOwner);\n\n        // Pass ownership of the new subdomain to the registrant\n        ens.setOwner(subnode, subdomainOwner);\n    }\n\n    function supportsInterface(bytes4 interfaceID) public pure returns (bool) {\n        return (\n            (interfaceID == 0x01ffc9a7) // supportsInterface(bytes4)\n            || (interfaceID == 0xc1b15f5a) // RegistrarInterface\n        );\n    }\n\n    function rentDue(bytes32 label, string subdomain) public view returns (uint timestamp) {\n        return 0xFFFFFFFFFFFFFFFFFFFFFFFFFFFFFFFFFFFFFFFFFFFFFFFFFFFFFFFFFFFFFFFF;\n    }\n\n    /**\n     * @dev Upgrades the domain to a new registrar.\n     * @param name The name of the domain to transfer.\n     */\n    function upgrade(string name) public owner_only(keccak256(name)) new_registrar {\n        bytes32 label = keccak256(name);\n        address transfer = domains[label].transferAddress;\n\n        require(transfer != 0x0);\n\n        delete domains[label];\n\n        hashRegistrar.transfer(label, transfer);\n        DomainTransferred(label, name);\n    }\n\n\n    /**\n     * @dev Stops the registrar, disabling configuring of new domains.\n     */\n    function stop() public not_stopped registrar_owner_only {\n        stopped = true;\n    }\n\n    /**\n     * @dev Sets the address where domains are migrated to.\n     * @param _migration Address of the new registrar.\n     */\n    function setMigrationAddress(address _migration) public registrar_owner_only {\n        require(stopped);\n        migration = _migration;\n    }\n\n    /**\n     * @dev Migrates the domain to a new registrar.\n     * @param name The name of the domain to migrate.\n     */\n    function migrate(string name) public owner_only(keccak256(name)) {\n        require(stopped);\n        require(migration != 0x0);\n\n        bytes32 label = keccak256(name);\n        Domain storage domain = domains[label];\n\n        hashRegistrar.transfer(label, migration);\n\n        SubdomainRegistrar(migration).configureDomainFor(\n            domain.name,\n            domain.price,\n            domain.referralFeePPM,\n            domain.owner,\n            domain.transferAddress\n        );\n\n        delete domains[label];\n\n        DomainTransferred(label, name);\n    }\n\n    function transferOwnership(address newOwner) public registrar_owner_only {\n        registrarOwner = newOwner;\n    }\n\n    function payRent(bytes32 label, string subdomain) public payable {\n        revert();\n    }\n\n    function deed(bytes32 label) internal view returns (Deed) {\n        var (,deedAddress,,,) = hashRegistrar.entries(label);\n        return Deed(deedAddress);\n    }\n}\n",
  "sourcePath": "/Users/significance/Code/df/subdomain-registrar/contracts/SubdomainRegistrar.sol",
  "compiler": {
    "name": "solc",
    "version": "0.4.24+commit.e67f0147.Emscripten.clang"
  },
  "schemaVersion": "2.0.1",
  "updatedAt": "2018-10-15T17:41:25.793Z"
}