{
  "contractName": "TestResolver",
  "abi": [
    {
      "inputs": [
        {
          "name": "_ens",
          "type": "address"
        }
      ],
      "payable": false,
      "stateMutability": "nonpayable",
      "type": "constructor"
    },
    {
      "constant": true,
      "inputs": [
        {
          "name": "interfaceID",
          "type": "bytes4"
        }
      ],
      "name": "supportsInterface",
      "outputs": [
        {
          "name": "",
          "type": "bool"
        }
      ],
      "payable": false,
      "stateMutability": "pure",
      "type": "function"
    },
    {
      "constant": true,
      "inputs": [
        {
          "name": "node",
          "type": "bytes32"
        }
      ],
      "name": "addr",
      "outputs": [
        {
          "name": "",
          "type": "address"
        }
      ],
      "payable": false,
      "stateMutability": "view",
      "type": "function"
    },
    {
      "constant": false,
      "inputs": [
        {
          "name": "node",
          "type": "bytes32"
        },
        {
          "name": "addr",
          "type": "address"
        }
      ],
      "name": "setAddr",
      "outputs": [],
      "payable": false,
      "stateMutability": "nonpayable",
      "type": "function"
    }
  ],
  "bytecode": "0x608060405234801561001057600080fd5b5060405160208061047a83398101806040528101908080519060200190929190505050806000806101000a81548173ffffffffffffffffffffffffffffffffffffffff021916908373ffffffffffffffffffffffffffffffffffffffff160217905550506103f7806100836000396000f300608060405260043610610057576000357c0100000000000000000000000000000000000000000000000000000000900463ffffffff16806301ffc9a71461005c5780633b3b57de146100c0578063d5fa2b0014610131575b600080fd5b34801561006857600080fd5b506100a660048036038101908080357bffffffffffffffffffffffffffffffffffffffffffffffffffffffff19169060200190929190505050610182565b604051808215151515815260200191505060405180910390f35b3480156100cc57600080fd5b506100ef600480360381019080803560001916906020019092919050505061021c565b604051808273ffffffffffffffffffffffffffffffffffffffff1673ffffffffffffffffffffffffffffffffffffffff16815260200191505060405180910390f35b34801561013d57600080fd5b506101806004803603810190808035600019169060200190929190803573ffffffffffffffffffffffffffffffffffffffff169060200190929190505050610261565b005b60006301ffc9a77c010000000000000000000000000000000000000000000000000000000002827bffffffffffffffffffffffffffffffffffffffffffffffffffffffff191614806102155750633b3b57de7c010000000000000000000000000000000000000000000000000000000002827bffffffffffffffffffffffffffffffffffffffffffffffffffffffff1916145b9050919050565b600060016000836000191660001916815260200190815260200160002060009054906101000a900473ffffffffffffffffffffffffffffffffffffffff169050919050565b3373ffffffffffffffffffffffffffffffffffffffff166000809054906101000a900473ffffffffffffffffffffffffffffffffffffffff1673ffffffffffffffffffffffffffffffffffffffff166302571be3846040518263ffffffff167c0100000000000000000000000000000000000000000000000000000000028152600401808260001916600019168152602001915050602060405180830381600087803b15801561031057600080fd5b505af1158015610324573d6000803e3d6000fd5b505050506040513d602081101561033a57600080fd5b810190808051906020019092919050505073ffffffffffffffffffffffffffffffffffffffff1614151561036d57600080fd5b8060016000846000191660001916815260200190815260200160002060006101000a81548173ffffffffffffffffffffffffffffffffffffffff021916908373ffffffffffffffffffffffffffffffffffffffff16021790555050505600a165627a7a72305820d5112852b80d854faea9d56ff0b15106394b43e6642a0a1b1bee2932cc1254400029",
  "source": "pragma solidity ^0.4.17;\n\nimport \"./ENS.sol\";\nimport \"./Resolver.sol\";\n\n/**\n * @dev A test resolver implementation\n */\ncontract TestResolver is Resolver {\n    ENS ens;\n\n    mapping (bytes32 => address) addresses;\n\n    function TestResolver(ENS _ens) public {\n        ens = _ens;\n    }\n\n    function supportsInterface(bytes4 interfaceID) public pure returns (bool) {\n        return interfaceID == 0x01ffc9a7 || interfaceID == 0x3b3b57de;\n    }\n\n    function addr(bytes32 node) public view returns (address) {\n        return addresses[node];\n    }\n\n    function setAddr(bytes32 node, address addr) public {\n        require(ens.owner(node) == msg.sender);\n        addresses[node] = addr;\n    }\n}\n",
  "sourcePath": "/Users/significance/Code/df/subdomain-registrar/contracts/TestResolver.sol",
  "compiler": {
    "name": "solc",
    "version": "0.4.24+commit.e67f0147.Emscripten.clang"
  },
  "schemaVersion": "2.0.1",
  "updatedAt": "2018-10-16T07:39:29.159Z"
}